
pixel_strand.elf:     file format elf32-avr

Sections:
Idx Name          Size      VMA       LMA       File off  Algn
  0 .data         00000022  00800100  0000081e  000008b2  2**0
                  CONTENTS, ALLOC, LOAD, DATA
  1 .text         0000081e  00000000  00000000  00000094  2**1
                  CONTENTS, ALLOC, LOAD, READONLY, CODE
  2 .bss          000001c2  00800122  00800122  000008d4  2**0
                  ALLOC
  3 .comment      00000030  00000000  00000000  000008d4  2**0
                  CONTENTS, READONLY
  4 .note.gnu.avr.deviceinfo 00000040  00000000  00000000  00000904  2**2
                  CONTENTS, READONLY
  5 .debug_aranges 000000e0  00000000  00000000  00000944  2**0
                  CONTENTS, READONLY, DEBUGGING
  6 .debug_info   00001bd6  00000000  00000000  00000a24  2**0
                  CONTENTS, READONLY, DEBUGGING
  7 .debug_abbrev 000009ec  00000000  00000000  000025fa  2**0
                  CONTENTS, READONLY, DEBUGGING
  8 .debug_line   00000a46  00000000  00000000  00002fe6  2**0
                  CONTENTS, READONLY, DEBUGGING
  9 .debug_frame  000002e8  00000000  00000000  00003a2c  2**2
                  CONTENTS, READONLY, DEBUGGING
 10 .debug_str    000005ab  00000000  00000000  00003d14  2**0
                  CONTENTS, READONLY, DEBUGGING
 11 .debug_loc    000012bd  00000000  00000000  000042bf  2**0
                  CONTENTS, READONLY, DEBUGGING
 12 .debug_ranges 000000d8  00000000  00000000  0000557c  2**0
                  CONTENTS, READONLY, DEBUGGING

Disassembly of section .text:

00000000 <__vectors>:
   0:	0c 94 34 00 	jmp	0x68	; 0x68 <__ctors_end>
   4:	0c 94 51 00 	jmp	0xa2	; 0xa2 <__bad_interrupt>
   8:	0c 94 51 00 	jmp	0xa2	; 0xa2 <__bad_interrupt>
   c:	0c 94 51 00 	jmp	0xa2	; 0xa2 <__bad_interrupt>
  10:	0c 94 51 00 	jmp	0xa2	; 0xa2 <__bad_interrupt>
  14:	0c 94 51 00 	jmp	0xa2	; 0xa2 <__bad_interrupt>
  18:	0c 94 51 00 	jmp	0xa2	; 0xa2 <__bad_interrupt>
  1c:	0c 94 51 00 	jmp	0xa2	; 0xa2 <__bad_interrupt>
  20:	0c 94 51 00 	jmp	0xa2	; 0xa2 <__bad_interrupt>
  24:	0c 94 51 00 	jmp	0xa2	; 0xa2 <__bad_interrupt>
  28:	0c 94 51 00 	jmp	0xa2	; 0xa2 <__bad_interrupt>
  2c:	0c 94 51 00 	jmp	0xa2	; 0xa2 <__bad_interrupt>
  30:	0c 94 51 00 	jmp	0xa2	; 0xa2 <__bad_interrupt>
  34:	0c 94 51 00 	jmp	0xa2	; 0xa2 <__bad_interrupt>
  38:	0c 94 51 00 	jmp	0xa2	; 0xa2 <__bad_interrupt>
  3c:	0c 94 51 00 	jmp	0xa2	; 0xa2 <__bad_interrupt>
  40:	0c 94 51 00 	jmp	0xa2	; 0xa2 <__bad_interrupt>
  44:	0c 94 51 00 	jmp	0xa2	; 0xa2 <__bad_interrupt>
  48:	0c 94 51 00 	jmp	0xa2	; 0xa2 <__bad_interrupt>
  4c:	0c 94 51 00 	jmp	0xa2	; 0xa2 <__bad_interrupt>
  50:	0c 94 51 00 	jmp	0xa2	; 0xa2 <__bad_interrupt>
  54:	0c 94 51 00 	jmp	0xa2	; 0xa2 <__bad_interrupt>
  58:	0c 94 51 00 	jmp	0xa2	; 0xa2 <__bad_interrupt>
  5c:	0c 94 51 00 	jmp	0xa2	; 0xa2 <__bad_interrupt>
  60:	0c 94 51 00 	jmp	0xa2	; 0xa2 <__bad_interrupt>
  64:	0c 94 51 00 	jmp	0xa2	; 0xa2 <__bad_interrupt>

00000068 <__ctors_end>:
  68:	11 24       	eor	r1, r1
  6a:	1f be       	out	0x3f, r1	; 63
  6c:	cf ef       	ldi	r28, 0xFF	; 255
  6e:	d8 e0       	ldi	r29, 0x08	; 8
  70:	de bf       	out	0x3e, r29	; 62
  72:	cd bf       	out	0x3d, r28	; 61

00000074 <__do_copy_data>:
  74:	11 e0       	ldi	r17, 0x01	; 1
  76:	a0 e0       	ldi	r26, 0x00	; 0
  78:	b1 e0       	ldi	r27, 0x01	; 1
  7a:	ee e1       	ldi	r30, 0x1E	; 30
  7c:	f8 e0       	ldi	r31, 0x08	; 8
  7e:	02 c0       	rjmp	.+4      	; 0x84 <__do_copy_data+0x10>
  80:	05 90       	lpm	r0, Z+
  82:	0d 92       	st	X+, r0
  84:	a2 32       	cpi	r26, 0x22	; 34
  86:	b1 07       	cpc	r27, r17
  88:	d9 f7       	brne	.-10     	; 0x80 <__do_copy_data+0xc>

0000008a <__do_clear_bss>:
  8a:	22 e0       	ldi	r18, 0x02	; 2
  8c:	a2 e2       	ldi	r26, 0x22	; 34
  8e:	b1 e0       	ldi	r27, 0x01	; 1
  90:	01 c0       	rjmp	.+2      	; 0x94 <.do_clear_bss_start>

00000092 <.do_clear_bss_loop>:
  92:	1d 92       	st	X+, r1

00000094 <.do_clear_bss_start>:
  94:	a4 3e       	cpi	r26, 0xE4	; 228
  96:	b2 07       	cpc	r27, r18
  98:	e1 f7       	brne	.-8      	; 0x92 <.do_clear_bss_loop>
  9a:	0e 94 fa 02 	call	0x5f4	; 0x5f4 <main>
  9e:	0c 94 0d 04 	jmp	0x81a	; 0x81a <_exit>

000000a2 <__bad_interrupt>:
  a2:	0c 94 00 00 	jmp	0	; 0x0 <__vectors>

000000a6 <ws2812_setleds>:
   ws2812_setleds_pin(ledarray,leds, _BV(ws2812_pin));
}

void inline ws2812_setleds_pin(struct cRGB *ledarray, uint16_t leds, uint8_t pinmask)
{
  ws2812_sendarray_mask((uint8_t*)ledarray,leds+leds+leds,pinmask);
  a6:	9b 01       	movw	r18, r22
  a8:	22 0f       	add	r18, r18
  aa:	33 1f       	adc	r19, r19
  ac:	62 0f       	add	r22, r18
  ae:	73 1f       	adc	r23, r19
void inline ws2812_sendarray_mask(uint8_t *data,uint16_t datlen,uint8_t maskhi)
{
  uint8_t curbyte,ctr,masklo;
  uint8_t sreg_prev;
  
  ws2812_DDRREG |= maskhi; // Enable output
  b0:	56 9a       	sbi	0x0a, 6	; 10
  
  masklo	=~maskhi&ws2812_PORTREG;
  b2:	2b b1       	in	r18, 0x0b	; 11
  b4:	2f 7b       	andi	r18, 0xBF	; 191
  maskhi |=        ws2812_PORTREG;
  b6:	3b b1       	in	r19, 0x0b	; 11
  b8:	30 64       	ori	r19, 0x40	; 64
  
  sreg_prev=SREG;
  ba:	4f b7       	in	r20, 0x3f	; 63
  cli();  
  bc:	f8 94       	cli

  while (datlen--) {
  be:	61 15       	cp	r22, r1
  c0:	71 05       	cpc	r23, r1
  c2:	b1 f0       	breq	.+44     	; 0xf0 <loop54+0x22>
  c4:	fc 01       	movw	r30, r24
  c6:	68 0f       	add	r22, r24
  c8:	79 1f       	adc	r23, r25
    curbyte=*data++;
  ca:	91 91       	ld	r25, Z+
    
    asm volatile(
  cc:	88 e0       	ldi	r24, 0x08	; 8

000000ce <loop54>:
  ce:	3b b9       	out	0x0b, r19	; 11
  d0:	00 00       	nop
  d2:	00 c0       	rjmp	.+0      	; 0xd4 <loop54+0x6>
  d4:	97 ff       	sbrs	r25, 7
  d6:	2b b9       	out	0x0b, r18	; 11
  d8:	99 0f       	add	r25, r25
  da:	00 00       	nop
  dc:	00 c0       	rjmp	.+0      	; 0xde <loop54+0x10>
  de:	00 c0       	rjmp	.+0      	; 0xe0 <loop54+0x12>
  e0:	00 c0       	rjmp	.+0      	; 0xe2 <loop54+0x14>
  e2:	2b b9       	out	0x0b, r18	; 11
  e4:	00 c0       	rjmp	.+0      	; 0xe6 <loop54+0x18>
  e6:	8a 95       	dec	r24
  e8:	91 f7       	brne	.-28     	; 0xce <loop54>
  maskhi |=        ws2812_PORTREG;
  
  sreg_prev=SREG;
  cli();  

  while (datlen--) {
  ea:	e6 17       	cp	r30, r22
  ec:	f7 07       	cpc	r31, r23
  ee:	69 f7       	brne	.-38     	; 0xca <ws2812_setleds+0x24>
    :	"=&d" (ctr)
    :	"r" (curbyte), "I" (_SFR_IO_ADDR(ws2812_PORTREG)), "r" (maskhi), "r" (masklo)
    );
  }
  
  SREG=sreg_prev;
  f0:	4f bf       	out	0x3f, r20	; 63
	#else
		//round up by default
		__ticks_dc = (uint32_t)(ceil(fabs(__tmp)));
	#endif

	__builtin_avr_delay_cycles(__ticks_dc);
  f2:	8f ea       	ldi	r24, 0xAF	; 175
  f4:	94 e0       	ldi	r25, 0x04	; 4
  f6:	01 97       	sbiw	r24, 0x01	; 1
  f8:	f1 f7       	brne	.-4      	; 0xf6 <loop54+0x28>
  fa:	00 c0       	rjmp	.+0      	; 0xfc <loop54+0x2e>
  fc:	00 00       	nop
  fe:	08 95       	ret

00000100 <led_on>:
}


void update_pixel(uint8_t position, uint8_t r, uint8_t g, uint8_t b) {
	prep_pixel(position, r, g, b);
	update_strip();
 100:	2d 9a       	sbi	0x05, 5	; 5
 102:	08 95       	ret

00000104 <led_off>:
 104:	2d 98       	cbi	0x05, 5	; 5
 106:	08 95       	ret

00000108 <delay_ms>:
 108:	cf 93       	push	r28
 10a:	df 93       	push	r29
 10c:	ec 01       	movw	r28, r24
 10e:	0e 94 80 00 	call	0x100	; 0x100 <led_on>
 112:	1c 16       	cp	r1, r28
 114:	1d 06       	cpc	r1, r29
 116:	6c f4       	brge	.+26     	; 0x132 <delay_ms+0x2a>
 118:	20 e0       	ldi	r18, 0x00	; 0
 11a:	30 e0       	ldi	r19, 0x00	; 0
 11c:	8f e9       	ldi	r24, 0x9F	; 159
 11e:	9f e0       	ldi	r25, 0x0F	; 15
 120:	01 97       	sbiw	r24, 0x01	; 1
 122:	f1 f7       	brne	.-4      	; 0x120 <delay_ms+0x18>
 124:	00 c0       	rjmp	.+0      	; 0x126 <delay_ms+0x1e>
 126:	00 00       	nop
 128:	2f 5f       	subi	r18, 0xFF	; 255
 12a:	3f 4f       	sbci	r19, 0xFF	; 255
 12c:	2c 17       	cp	r18, r28
 12e:	3d 07       	cpc	r19, r29
 130:	a9 f7       	brne	.-22     	; 0x11c <delay_ms+0x14>
 132:	0e 94 82 00 	call	0x104	; 0x104 <led_off>
 136:	df 91       	pop	r29
 138:	cf 91       	pop	r28
 13a:	08 95       	ret

0000013c <update_strip>:
 13c:	62 ec       	ldi	r22, 0xC2	; 194
 13e:	71 e0       	ldi	r23, 0x01	; 1
 140:	82 e2       	ldi	r24, 0x22	; 34
 142:	91 e0       	ldi	r25, 0x01	; 1
 144:	0e 94 53 00 	call	0xa6	; 0xa6 <ws2812_setleds>
 148:	08 95       	ret

0000014a <prep_pixel_fixedcolor>:
 14a:	db 01       	movw	r26, r22
 14c:	90 e0       	ldi	r25, 0x00	; 0
 14e:	2c 91       	ld	r18, X
 150:	fc 01       	movw	r30, r24
 152:	ee 0f       	add	r30, r30
 154:	ff 1f       	adc	r31, r31
 156:	8e 0f       	add	r24, r30
 158:	9f 1f       	adc	r25, r31
 15a:	fc 01       	movw	r30, r24
 15c:	ee 5d       	subi	r30, 0xDE	; 222
 15e:	fe 4f       	sbci	r31, 0xFE	; 254
 160:	21 83       	std	Z+1, r18	; 0x01
 162:	11 96       	adiw	r26, 0x01	; 1
 164:	8c 91       	ld	r24, X
 166:	11 97       	sbiw	r26, 0x01	; 1
 168:	80 83       	st	Z, r24
 16a:	12 96       	adiw	r26, 0x02	; 2
 16c:	8c 91       	ld	r24, X
 16e:	82 83       	std	Z+2, r24	; 0x02
 170:	08 95       	ret

00000172 <strip_customcolor>:
 172:	e4 e2       	ldi	r30, 0x24	; 36
 174:	f1 e0       	ldi	r31, 0x01	; 1
 176:	26 ee       	ldi	r18, 0xE6	; 230
 178:	32 e0       	ldi	r19, 0x02	; 2
 17a:	df 01       	movw	r26, r30
 17c:	11 97       	sbiw	r26, 0x01	; 1
 17e:	8c 93       	st	X, r24
 180:	11 97       	sbiw	r26, 0x01	; 1
 182:	6c 93       	st	X, r22
 184:	40 83       	st	Z, r20
 186:	33 96       	adiw	r30, 0x03	; 3
 188:	e2 17       	cp	r30, r18
 18a:	f3 07       	cpc	r31, r19
 18c:	b1 f7       	brne	.-20     	; 0x17a <strip_customcolor+0x8>
 18e:	0e 94 9e 00 	call	0x13c	; 0x13c <update_strip>
 192:	08 95       	ret

00000194 <clear_strip>:
 194:	40 e0       	ldi	r20, 0x00	; 0
 196:	60 e0       	ldi	r22, 0x00	; 0
 198:	80 e0       	ldi	r24, 0x00	; 0
 19a:	0e 94 b9 00 	call	0x172	; 0x172 <strip_customcolor>
 19e:	0e 94 9e 00 	call	0x13c	; 0x13c <update_strip>
 1a2:	08 95       	ret

000001a4 <update_pixel_fixedcolor>:
}


void update_pixel_fixedcolor (int position, uint8_t color_arr[3]) {
 1a4:	fb 01       	movw	r30, r22
	prep_pixel(position, color_arr[0],color_arr[1], color_arr[2]);
 1a6:	22 81       	ldd	r18, Z+2	; 0x02
 1a8:	31 81       	ldd	r19, Z+1	; 0x01
 1aa:	40 81       	ld	r20, Z
	ws2812_setleds(led, 3*MAXPIX);
}


void prep_pixel(uint8_t position, uint8_t r, uint8_t g, uint8_t b) {
	led[position].r = r;
 1ac:	99 27       	eor	r25, r25
 1ae:	fc 01       	movw	r30, r24
 1b0:	ee 0f       	add	r30, r30
 1b2:	ff 1f       	adc	r31, r31
 1b4:	8e 0f       	add	r24, r30
 1b6:	9f 1f       	adc	r25, r31
 1b8:	fc 01       	movw	r30, r24
 1ba:	ee 5d       	subi	r30, 0xDE	; 222
 1bc:	fe 4f       	sbci	r31, 0xFE	; 254
 1be:	41 83       	std	Z+1, r20	; 0x01
	led[position].g = g;
 1c0:	30 83       	st	Z, r19
	led[position].b = b;
 1c2:	22 83       	std	Z+2, r18	; 0x02
}


void update_pixel_fixedcolor (int position, uint8_t color_arr[3]) {
	prep_pixel(position, color_arr[0],color_arr[1], color_arr[2]);
	update_strip();
 1c4:	0e 94 9e 00 	call	0x13c	; 0x13c <update_strip>
 1c8:	08 95       	ret

000001ca <strip_colorswipe>:
}


void strip_colorswipe(int delay, uint8_t color_arr[3]) {
 1ca:	cf 92       	push	r12
 1cc:	df 92       	push	r13
 1ce:	ef 92       	push	r14
 1d0:	ff 92       	push	r15
 1d2:	0f 93       	push	r16
 1d4:	1f 93       	push	r17
 1d6:	cf 93       	push	r28
 1d8:	df 93       	push	r29
 1da:	6c 01       	movw	r12, r24
 1dc:	8b 01       	movw	r16, r22
 1de:	c4 e2       	ldi	r28, 0x24	; 36
 1e0:	d1 e0       	ldi	r29, 0x01	; 1
 1e2:	0f 2e       	mov	r0, r31
 1e4:	f6 ee       	ldi	r31, 0xE6	; 230
 1e6:	ef 2e       	mov	r14, r31
 1e8:	f2 e0       	ldi	r31, 0x02	; 2
 1ea:	ff 2e       	mov	r15, r31
 1ec:	f0 2d       	mov	r31, r0
	for (uint8_t i=0; i<MAXPIX; i++) {
		update_pixel(i, color_arr[0], color_arr[1], color_arr[2]);
 1ee:	f8 01       	movw	r30, r16
 1f0:	92 81       	ldd	r25, Z+2	; 0x02
 1f2:	81 81       	ldd	r24, Z+1	; 0x01
 1f4:	20 81       	ld	r18, Z
 1f6:	fe 01       	movw	r30, r28
 1f8:	31 97       	sbiw	r30, 0x01	; 1
	ws2812_setleds(led, 3*MAXPIX);
}


void prep_pixel(uint8_t position, uint8_t r, uint8_t g, uint8_t b) {
	led[position].r = r;
 1fa:	20 83       	st	Z, r18
 1fc:	31 97       	sbiw	r30, 0x01	; 1
	led[position].g = g;
 1fe:	80 83       	st	Z, r24
	led[position].b = b;
 200:	98 83       	st	Y, r25
}


void update_pixel(uint8_t position, uint8_t r, uint8_t g, uint8_t b) {
	prep_pixel(position, r, g, b);
	update_strip();
 202:	0e 94 9e 00 	call	0x13c	; 0x13c <update_strip>


void strip_colorswipe(int delay, uint8_t color_arr[3]) {
	for (uint8_t i=0; i<MAXPIX; i++) {
		update_pixel(i, color_arr[0], color_arr[1], color_arr[2]);
		delay_ms(delay);
 206:	c6 01       	movw	r24, r12
 208:	0e 94 84 00 	call	0x108	; 0x108 <delay_ms>
 20c:	23 96       	adiw	r28, 0x03	; 3
	update_strip();
}


void strip_colorswipe(int delay, uint8_t color_arr[3]) {
	for (uint8_t i=0; i<MAXPIX; i++) {
 20e:	ce 15       	cp	r28, r14
 210:	df 05       	cpc	r29, r15
 212:	69 f7       	brne	.-38     	; 0x1ee <strip_colorswipe+0x24>
		update_pixel(i, color_arr[0], color_arr[1], color_arr[2]);
		delay_ms(delay);
	}
}
 214:	df 91       	pop	r29
 216:	cf 91       	pop	r28
 218:	1f 91       	pop	r17
 21a:	0f 91       	pop	r16
 21c:	ff 90       	pop	r15
 21e:	ef 90       	pop	r14
 220:	df 90       	pop	r13
 222:	cf 90       	pop	r12
 224:	08 95       	ret

00000226 <strip_nazi>:


void strip_nazi(uint8_t color_A[3], uint8_t color_B[3], uint8_t color_C[3]) {
 226:	af 92       	push	r10
 228:	bf 92       	push	r11
 22a:	cf 92       	push	r12
 22c:	df 92       	push	r13
 22e:	ef 92       	push	r14
 230:	ff 92       	push	r15
 232:	0f 93       	push	r16
 234:	1f 93       	push	r17
 236:	cf 93       	push	r28
 238:	df 93       	push	r29
 23a:	8c 01       	movw	r16, r24
 23c:	6b 01       	movw	r12, r22
 23e:	7a 01       	movw	r14, r20
	int i, cnt=0;

	for (i=140; i>=103; i--) {
 240:	cc e8       	ldi	r28, 0x8C	; 140
 242:	d0 e0       	ldi	r29, 0x00	; 0
		update_pixel_fixedcolor(i, color_A);
 244:	b8 01       	movw	r22, r16
 246:	ce 01       	movw	r24, r28
 248:	0e 94 d2 00 	call	0x1a4	; 0x1a4 <update_pixel_fixedcolor>
		update_pixel_fixedcolor(i-75, color_A);
 24c:	b8 01       	movw	r22, r16
 24e:	ce 01       	movw	r24, r28
 250:	8b 54       	subi	r24, 0x4B	; 75
 252:	91 09       	sbc	r25, r1
 254:	0e 94 d2 00 	call	0x1a4	; 0x1a4 <update_pixel_fixedcolor>
	#else
		//round up by default
		__ticks_dc = (uint32_t)(ceil(fabs(__tmp)));
	#endif

	__builtin_avr_delay_cycles(__ticks_dc);
 258:	8f e3       	ldi	r24, 0x3F	; 63
 25a:	9c e9       	ldi	r25, 0x9C	; 156
 25c:	01 97       	sbiw	r24, 0x01	; 1
 25e:	f1 f7       	brne	.-4      	; 0x25c <strip_nazi+0x36>
 260:	00 c0       	rjmp	.+0      	; 0x262 <strip_nazi+0x3c>
 262:	00 00       	nop


void strip_nazi(uint8_t color_A[3], uint8_t color_B[3], uint8_t color_C[3]) {
	int i, cnt=0;

	for (i=140; i>=103; i--) {
 264:	21 97       	sbiw	r28, 0x01	; 1
 266:	c6 36       	cpi	r28, 0x66	; 102
 268:	d1 05       	cpc	r29, r1
 26a:	61 f7       	brne	.-40     	; 0x244 <strip_nazi+0x1e>
 26c:	9f ef       	ldi	r25, 0xFF	; 255
 26e:	2d e3       	ldi	r18, 0x3D	; 61
 270:	89 e4       	ldi	r24, 0x49	; 73
 272:	91 50       	subi	r25, 0x01	; 1
 274:	20 40       	sbci	r18, 0x00	; 0
 276:	80 40       	sbci	r24, 0x00	; 0
 278:	e1 f7       	brne	.-8      	; 0x272 <strip_nazi+0x4c>
 27a:	00 c0       	rjmp	.+0      	; 0x27c <strip_nazi+0x56>
 27c:	00 00       	nop
 27e:	cb e1       	ldi	r28, 0x1B	; 27
 280:	d0 e0       	ldi	r29, 0x00	; 0
	}
}


void strip_nazi(uint8_t color_A[3], uint8_t color_B[3], uint8_t color_C[3]) {
	int i, cnt=0;
 282:	00 e0       	ldi	r16, 0x00	; 0
 284:	10 e0       	ldi	r17, 0x00	; 0

	for (i=102; i>=66; i--) {
		update_pixel_fixedcolor(i, color_B);
		if (i-75 >= 0) update_pixel_fixedcolor(i-75, color_B);
		else { 
			update_pixel_fixedcolor(MAXPIX-1-cnt, color_B);
 286:	0f 2e       	mov	r0, r31
 288:	f5 e9       	ldi	r31, 0x95	; 149
 28a:	af 2e       	mov	r10, r31
 28c:	b1 2c       	mov	r11, r1
 28e:	f0 2d       	mov	r31, r0
	}

	_delay_ms(1500);

	for (i=102; i>=66; i--) {
		update_pixel_fixedcolor(i, color_B);
 290:	b6 01       	movw	r22, r12
 292:	ce 01       	movw	r24, r28
 294:	85 5b       	subi	r24, 0xB5	; 181
 296:	9f 4f       	sbci	r25, 0xFF	; 255
 298:	0e 94 d2 00 	call	0x1a4	; 0x1a4 <update_pixel_fixedcolor>
		if (i-75 >= 0) update_pixel_fixedcolor(i-75, color_B);
 29c:	dd 23       	and	r29, r29
 29e:	2c f0       	brlt	.+10     	; 0x2aa <strip_nazi+0x84>
 2a0:	b6 01       	movw	r22, r12
 2a2:	ce 01       	movw	r24, r28
 2a4:	0e 94 d2 00 	call	0x1a4	; 0x1a4 <update_pixel_fixedcolor>
 2a8:	08 c0       	rjmp	.+16     	; 0x2ba <strip_nazi+0x94>
		else { 
			update_pixel_fixedcolor(MAXPIX-1-cnt, color_B);
 2aa:	b6 01       	movw	r22, r12
 2ac:	c5 01       	movw	r24, r10
 2ae:	80 1b       	sub	r24, r16
 2b0:	91 0b       	sbc	r25, r17
 2b2:	0e 94 d2 00 	call	0x1a4	; 0x1a4 <update_pixel_fixedcolor>
			cnt++;
 2b6:	0f 5f       	subi	r16, 0xFF	; 255
 2b8:	1f 4f       	sbci	r17, 0xFF	; 255
 2ba:	8f e3       	ldi	r24, 0x3F	; 63
 2bc:	9c e9       	ldi	r25, 0x9C	; 156
 2be:	01 97       	sbiw	r24, 0x01	; 1
 2c0:	f1 f7       	brne	.-4      	; 0x2be <strip_nazi+0x98>
 2c2:	00 c0       	rjmp	.+0      	; 0x2c4 <strip_nazi+0x9e>
 2c4:	00 00       	nop
 2c6:	21 97       	sbiw	r28, 0x01	; 1
		_delay_ms(10);
	}

	_delay_ms(1500);

	for (i=102; i>=66; i--) {
 2c8:	c6 3f       	cpi	r28, 0xF6	; 246
 2ca:	9f ef       	ldi	r25, 0xFF	; 255
 2cc:	d9 07       	cpc	r29, r25
 2ce:	01 f7       	brne	.-64     	; 0x290 <strip_nazi+0x6a>
 2d0:	2f ef       	ldi	r18, 0xFF	; 255
 2d2:	8d e3       	ldi	r24, 0x3D	; 61
 2d4:	99 e4       	ldi	r25, 0x49	; 73
 2d6:	21 50       	subi	r18, 0x01	; 1
 2d8:	80 40       	sbci	r24, 0x00	; 0
 2da:	90 40       	sbci	r25, 0x00	; 0
 2dc:	e1 f7       	brne	.-8      	; 0x2d6 <strip_nazi+0xb0>
 2de:	00 c0       	rjmp	.+0      	; 0x2e0 <strip_nazi+0xba>
 2e0:	00 00       	nop
 2e2:	c1 e4       	ldi	r28, 0x41	; 65
 2e4:	d0 e0       	ldi	r29, 0x00	; 0
		_delay_ms(10);
	}

	_delay_ms(1500);

	cnt = 0;
 2e6:	00 e0       	ldi	r16, 0x00	; 0
 2e8:	10 e0       	ldi	r17, 0x00	; 0
	for (i=140; i>=66; i--) {
		update_pixel_fixedcolor(i, color_C);
		if (i-75 >= 0) update_pixel_fixedcolor(i-75, color_C);
		else {
			update_pixel_fixedcolor(MAXPIX-1-cnt,color_C);
 2ea:	0f 2e       	mov	r0, r31
 2ec:	f5 e9       	ldi	r31, 0x95	; 149
 2ee:	cf 2e       	mov	r12, r31
 2f0:	d1 2c       	mov	r13, r1
 2f2:	f0 2d       	mov	r31, r0

	_delay_ms(1500);

	cnt = 0;
	for (i=140; i>=66; i--) {
		update_pixel_fixedcolor(i, color_C);
 2f4:	b7 01       	movw	r22, r14
 2f6:	ce 01       	movw	r24, r28
 2f8:	85 5b       	subi	r24, 0xB5	; 181
 2fa:	9f 4f       	sbci	r25, 0xFF	; 255
 2fc:	0e 94 d2 00 	call	0x1a4	; 0x1a4 <update_pixel_fixedcolor>
		if (i-75 >= 0) update_pixel_fixedcolor(i-75, color_C);
 300:	dd 23       	and	r29, r29
 302:	2c f0       	brlt	.+10     	; 0x30e <strip_nazi+0xe8>
 304:	b7 01       	movw	r22, r14
 306:	ce 01       	movw	r24, r28
 308:	0e 94 d2 00 	call	0x1a4	; 0x1a4 <update_pixel_fixedcolor>
 30c:	08 c0       	rjmp	.+16     	; 0x31e <strip_nazi+0xf8>
		else {
			update_pixel_fixedcolor(MAXPIX-1-cnt,color_C);
 30e:	b7 01       	movw	r22, r14
 310:	c6 01       	movw	r24, r12
 312:	80 1b       	sub	r24, r16
 314:	91 0b       	sbc	r25, r17
 316:	0e 94 d2 00 	call	0x1a4	; 0x1a4 <update_pixel_fixedcolor>
			cnt++;
 31a:	0f 5f       	subi	r16, 0xFF	; 255
 31c:	1f 4f       	sbci	r17, 0xFF	; 255
 31e:	8f e3       	ldi	r24, 0x3F	; 63
 320:	9c e9       	ldi	r25, 0x9C	; 156
 322:	01 97       	sbiw	r24, 0x01	; 1
 324:	f1 f7       	brne	.-4      	; 0x322 <strip_nazi+0xfc>
 326:	00 c0       	rjmp	.+0      	; 0x328 <strip_nazi+0x102>
 328:	00 00       	nop
 32a:	21 97       	sbiw	r28, 0x01	; 1
	}

	_delay_ms(1500);

	cnt = 0;
	for (i=140; i>=66; i--) {
 32c:	c6 3f       	cpi	r28, 0xF6	; 246
 32e:	9f ef       	ldi	r25, 0xFF	; 255
 330:	d9 07       	cpc	r29, r25
 332:	01 f7       	brne	.-64     	; 0x2f4 <strip_nazi+0xce>
			update_pixel_fixedcolor(MAXPIX-1-cnt,color_C);
			cnt++;
		}
		_delay_ms(10);
	}
}
 334:	df 91       	pop	r29
 336:	cf 91       	pop	r28
 338:	1f 91       	pop	r17
 33a:	0f 91       	pop	r16
 33c:	ff 90       	pop	r15
 33e:	ef 90       	pop	r14
 340:	df 90       	pop	r13
 342:	cf 90       	pop	r12
 344:	bf 90       	pop	r11
 346:	af 90       	pop	r10
 348:	08 95       	ret

0000034a <strip_fadetocolor>:


void strip_fadetocolor(int delay, uint8_t color_arr[3]) {
 34a:	2f 92       	push	r2
 34c:	3f 92       	push	r3
 34e:	4f 92       	push	r4
 350:	5f 92       	push	r5
 352:	6f 92       	push	r6
 354:	7f 92       	push	r7
 356:	8f 92       	push	r8
 358:	9f 92       	push	r9
 35a:	af 92       	push	r10
 35c:	bf 92       	push	r11
 35e:	cf 92       	push	r12
 360:	df 92       	push	r13
 362:	ef 92       	push	r14
 364:	ff 92       	push	r15
 366:	0f 93       	push	r16
 368:	1f 93       	push	r17
 36a:	cf 93       	push	r28
 36c:	df 93       	push	r29
 36e:	5c 01       	movw	r10, r24
 370:	1b 01       	movw	r2, r22
 372:	0f 2e       	mov	r0, r31
 374:	f3 e2       	ldi	r31, 0x23	; 35
 376:	cf 2e       	mov	r12, r31
 378:	f1 e0       	ldi	r31, 0x01	; 1
 37a:	df 2e       	mov	r13, r31
 37c:	f0 2d       	mov	r31, r0
 37e:	0f 2e       	mov	r0, r31
 380:	f2 e2       	ldi	r31, 0x22	; 34
 382:	ef 2e       	mov	r14, r31
 384:	f1 e0       	ldi	r31, 0x01	; 1
 386:	ff 2e       	mov	r15, r31
 388:	f0 2d       	mov	r31, r0
 38a:	0f 2e       	mov	r0, r31
 38c:	f4 e2       	ldi	r31, 0x24	; 36
 38e:	6f 2e       	mov	r6, r31
 390:	f1 e0       	ldi	r31, 0x01	; 1
 392:	7f 2e       	mov	r7, r31
 394:	f0 2d       	mov	r31, r0
 396:	0f 2e       	mov	r0, r31
 398:	f6 ee       	ldi	r31, 0xE6	; 230
 39a:	8f 2e       	mov	r8, r31
 39c:	f2 e0       	ldi	r31, 0x02	; 2
 39e:	9f 2e       	mov	r9, r31
 3a0:	f0 2d       	mov	r31, r0
 3a2:	41 2c       	mov	r4, r1
 3a4:	51 2c       	mov	r5, r1
 3a6:	c6 01       	movw	r24, r12
 3a8:	d7 01       	movw	r26, r14
 3aa:	f3 01       	movw	r30, r6
 3ac:	04 2d       	mov	r16, r4
 3ae:	15 2d       	mov	r17, r5
	int cnt = 0;
	
	for (uint8_t i=0; i<256; i++) {
		for(uint8_t n=0; n<MAXPIX; n++) {
			if (led[n].r < color_arr[0]) led[n].r++;
 3b0:	ec 01       	movw	r28, r24
 3b2:	48 81       	ld	r20, Y
 3b4:	e1 01       	movw	r28, r2
 3b6:	58 81       	ld	r21, Y
 3b8:	45 17       	cp	r20, r21
 3ba:	20 f4       	brcc	.+8      	; 0x3c4 <strip_fadetocolor+0x7a>
 3bc:	4f 5f       	subi	r20, 0xFF	; 255
 3be:	ec 01       	movw	r28, r24
 3c0:	48 83       	st	Y, r20
 3c2:	08 c0       	rjmp	.+16     	; 0x3d4 <strip_fadetocolor+0x8a>
			else if (led[n].r > color_arr[0]) led[n].r--;
 3c4:	54 17       	cp	r21, r20
 3c6:	20 f4       	brcc	.+8      	; 0x3d0 <strip_fadetocolor+0x86>
 3c8:	41 50       	subi	r20, 0x01	; 1
 3ca:	ec 01       	movw	r28, r24
 3cc:	48 83       	st	Y, r20
 3ce:	02 c0       	rjmp	.+4      	; 0x3d4 <strip_fadetocolor+0x8a>
			else cnt++;
 3d0:	0f 5f       	subi	r16, 0xFF	; 255
 3d2:	1f 4f       	sbci	r17, 0xFF	; 255
			
			if (led[n].g < color_arr[1]) led[n].g++;
 3d4:	4c 91       	ld	r20, X
 3d6:	e1 01       	movw	r28, r2
 3d8:	59 81       	ldd	r21, Y+1	; 0x01
 3da:	45 17       	cp	r20, r21
 3dc:	18 f4       	brcc	.+6      	; 0x3e4 <strip_fadetocolor+0x9a>
 3de:	4f 5f       	subi	r20, 0xFF	; 255
 3e0:	4c 93       	st	X, r20
 3e2:	08 c0       	rjmp	.+16     	; 0x3f4 <strip_fadetocolor+0xaa>
			else if (led[n].g > color_arr[1]) led[n].g--;
 3e4:	54 17       	cp	r21, r20
 3e6:	20 f4       	brcc	.+8      	; 0x3f0 <strip_fadetocolor+0xa6>
 3e8:	41 50       	subi	r20, 0x01	; 1
 3ea:	ed 01       	movw	r28, r26
 3ec:	48 83       	st	Y, r20
 3ee:	02 c0       	rjmp	.+4      	; 0x3f4 <strip_fadetocolor+0xaa>
			else cnt++;
 3f0:	0f 5f       	subi	r16, 0xFF	; 255
 3f2:	1f 4f       	sbci	r17, 0xFF	; 255
			
			if (led[n].b < color_arr[2]) led[n].b++;
 3f4:	40 81       	ld	r20, Z
 3f6:	e1 01       	movw	r28, r2
 3f8:	5a 81       	ldd	r21, Y+2	; 0x02
 3fa:	45 17       	cp	r20, r21
 3fc:	18 f4       	brcc	.+6      	; 0x404 <__LOCK_REGION_LENGTH__+0x4>
 3fe:	4f 5f       	subi	r20, 0xFF	; 255
 400:	40 83       	st	Z, r20
 402:	07 c0       	rjmp	.+14     	; 0x412 <__LOCK_REGION_LENGTH__+0x12>
			else if (led[n].b > color_arr[2]) led[n].b--;
 404:	54 17       	cp	r21, r20
 406:	18 f4       	brcc	.+6      	; 0x40e <__LOCK_REGION_LENGTH__+0xe>
 408:	41 50       	subi	r20, 0x01	; 1
 40a:	40 83       	st	Z, r20
 40c:	02 c0       	rjmp	.+4      	; 0x412 <__LOCK_REGION_LENGTH__+0x12>
			else cnt++;
 40e:	0f 5f       	subi	r16, 0xFF	; 255
 410:	1f 4f       	sbci	r17, 0xFF	; 255
 412:	03 96       	adiw	r24, 0x03	; 3
 414:	13 96       	adiw	r26, 0x03	; 3
 416:	33 96       	adiw	r30, 0x03	; 3

void strip_fadetocolor(int delay, uint8_t color_arr[3]) {
	int cnt = 0;
	
	for (uint8_t i=0; i<256; i++) {
		for(uint8_t n=0; n<MAXPIX; n++) {
 418:	e8 15       	cp	r30, r8
 41a:	f9 05       	cpc	r31, r9
 41c:	49 f6       	brne	.-110    	; 0x3b0 <strip_fadetocolor+0x66>
			if (led[n].b < color_arr[2]) led[n].b++;
			else if (led[n].b > color_arr[2]) led[n].b--;
			else cnt++;
		}

		update_strip();
 41e:	0e 94 9e 00 	call	0x13c	; 0x13c <update_strip>

		if (cnt == 3*MAXPIX) break;
 422:	02 3c       	cpi	r16, 0xC2	; 194
 424:	11 40       	sbci	r17, 0x01	; 1
 426:	21 f0       	breq	.+8      	; 0x430 <__LOCK_REGION_LENGTH__+0x30>
		cnt = 0;

		delay_ms(delay);
 428:	c5 01       	movw	r24, r10
 42a:	0e 94 84 00 	call	0x108	; 0x108 <delay_ms>
	}
 42e:	bb cf       	rjmp	.-138    	; 0x3a6 <strip_fadetocolor+0x5c>
}
 430:	df 91       	pop	r29
 432:	cf 91       	pop	r28
 434:	1f 91       	pop	r17
 436:	0f 91       	pop	r16
 438:	ff 90       	pop	r15
 43a:	ef 90       	pop	r14
 43c:	df 90       	pop	r13
 43e:	cf 90       	pop	r12
 440:	bf 90       	pop	r11
 442:	af 90       	pop	r10
 444:	9f 90       	pop	r9
 446:	8f 90       	pop	r8
 448:	7f 90       	pop	r7
 44a:	6f 90       	pop	r6
 44c:	5f 90       	pop	r5
 44e:	4f 90       	pop	r4
 450:	3f 90       	pop	r3
 452:	2f 90       	pop	r2
 454:	08 95       	ret

00000456 <_chase>:


void _chase(int position, uint8_t color_A[3], uint8_t color_B[3]) {
 456:	ef 92       	push	r14
 458:	ff 92       	push	r15
 45a:	0f 93       	push	r16
 45c:	1f 93       	push	r17
 45e:	cf 93       	push	r28
 460:	df 93       	push	r29
 462:	ec 01       	movw	r28, r24
 464:	7b 01       	movw	r14, r22
 466:	8a 01       	movw	r16, r20
	prep_pixel_fixedcolor(position, color_B);
 468:	ba 01       	movw	r22, r20
 46a:	0e 94 a5 00 	call	0x14a	; 0x14a <prep_pixel_fixedcolor>

	if (position > 0) {
 46e:	1c 16       	cp	r1, r28
 470:	1d 06       	cpc	r1, r29
 472:	6c f4       	brge	.+26     	; 0x48e <_chase+0x38>
		if (position < MAXPIX-2) prep_pixel_fixedcolor(position+1, color_B);
 474:	c4 39       	cpi	r28, 0x94	; 148
 476:	d1 05       	cpc	r29, r1
 478:	2c f4       	brge	.+10     	; 0x484 <_chase+0x2e>
 47a:	b8 01       	movw	r22, r16
 47c:	8c 2f       	mov	r24, r28
 47e:	8f 5f       	subi	r24, 0xFF	; 255
 480:	0e 94 a5 00 	call	0x14a	; 0x14a <prep_pixel_fixedcolor>
		prep_pixel_fixedcolor(position-1, color_A);
 484:	b7 01       	movw	r22, r14
 486:	8c 2f       	mov	r24, r28
 488:	81 50       	subi	r24, 0x01	; 1
 48a:	0e 94 a5 00 	call	0x14a	; 0x14a <prep_pixel_fixedcolor>
	}
}
 48e:	df 91       	pop	r29
 490:	cf 91       	pop	r28
 492:	1f 91       	pop	r17
 494:	0f 91       	pop	r16
 496:	ff 90       	pop	r15
 498:	ef 90       	pop	r14
 49a:	08 95       	ret

0000049c <strip_chase>:


void strip_chase(int delay, uint8_t repeats, uint8_t color_A[3], uint8_t color_B[3]) {	
 49c:	2f 92       	push	r2
 49e:	3f 92       	push	r3
 4a0:	4f 92       	push	r4
 4a2:	5f 92       	push	r5
 4a4:	6f 92       	push	r6
 4a6:	7f 92       	push	r7
 4a8:	8f 92       	push	r8
 4aa:	9f 92       	push	r9
 4ac:	af 92       	push	r10
 4ae:	bf 92       	push	r11
 4b0:	cf 92       	push	r12
 4b2:	df 92       	push	r13
 4b4:	ef 92       	push	r14
 4b6:	ff 92       	push	r15
 4b8:	0f 93       	push	r16
 4ba:	1f 93       	push	r17
 4bc:	cf 93       	push	r28
 4be:	df 93       	push	r29
 4c0:	cd b7       	in	r28, 0x3d	; 61
 4c2:	de b7       	in	r29, 0x3e	; 62
 4c4:	28 97       	sbiw	r28, 0x08	; 8
 4c6:	0f b6       	in	r0, 0x3f	; 63
 4c8:	f8 94       	cli
 4ca:	de bf       	out	0x3e, r29	; 62
 4cc:	0f be       	out	0x3f, r0	; 63
 4ce:	cd bf       	out	0x3d, r28	; 61
	for (uint8_t r=0; r<repeats; r++) {
 4d0:	66 23       	and	r22, r22
 4d2:	09 f4       	brne	.+2      	; 0x4d6 <strip_chase+0x3a>
 4d4:	76 c0       	rjmp	.+236    	; 0x5c2 <strip_chase+0x126>
 4d6:	59 01       	movw	r10, r18
 4d8:	1a 01       	movw	r2, r20
 4da:	2f ef       	ldi	r18, 0xFF	; 255
 4dc:	26 0f       	add	r18, r22
 4de:	30 e0       	ldi	r19, 0x00	; 0
 4e0:	a9 01       	movw	r20, r18
 4e2:	4f 5f       	subi	r20, 0xFF	; 255
 4e4:	5f 4f       	sbci	r21, 0xFF	; 255
 4e6:	5c 83       	std	Y+4, r21	; 0x04
 4e8:	4b 83       	std	Y+3, r20	; 0x03
 4ea:	1a 82       	std	Y+2, r1	; 0x02
 4ec:	19 82       	std	Y+1, r1	; 0x01

			for (uint8_t n=20; n<=100; n+=20) if (i >= !(i % n) && i > n-1) _chase(i-n, color_A, color_B);

			update_strip();

			if (i == MAXPIX-2 && r == repeats-1) break;
 4ee:	86 2f       	mov	r24, r22
 4f0:	90 e0       	ldi	r25, 0x00	; 0
 4f2:	fc 01       	movw	r30, r24
 4f4:	31 97       	sbiw	r30, 0x01	; 1
 4f6:	fe 83       	std	Y+6, r31	; 0x06
 4f8:	ed 83       	std	Y+5, r30	; 0x05

void strip_chase(int delay, uint8_t repeats, uint8_t color_A[3], uint8_t color_B[3]) {	
	for (uint8_t r=0; r<repeats; r++) {
	
		for (uint8_t i=0; i<MAXPIX+101; i++) {
			_chase(i, color_A, color_B);
 4fa:	41 2c       	mov	r4, r1

			for (uint8_t n=20; n<=100; n+=20) if (i >= !(i % n) && i > n-1) _chase(i-n, color_A, color_B);
 4fc:	77 24       	eor	r7, r7
 4fe:	73 94       	inc	r7
 500:	c1 2c       	mov	r12, r1
 502:	51 2c       	mov	r5, r1
 504:	61 2c       	mov	r6, r1
 506:	45 01       	movw	r8, r10
 508:	59 c0       	rjmp	.+178    	; 0x5bc <strip_chase+0x120>
 50a:	de 2c       	mov	r13, r14

void strip_chase(int delay, uint8_t repeats, uint8_t color_A[3], uint8_t color_B[3]) {	
	for (uint8_t r=0; r<repeats; r++) {
	
		for (uint8_t i=0; i<MAXPIX+101; i++) {
			_chase(i, color_A, color_B);
 50c:	87 01       	movw	r16, r14
 50e:	a4 01       	movw	r20, r8
 510:	b1 01       	movw	r22, r2
 512:	c7 01       	movw	r24, r14
 514:	0e 94 2b 02 	call	0x456	; 0x456 <_chase>
 518:	f3 e1       	ldi	r31, 0x13	; 19
 51a:	ff 83       	std	Y+7, r31	; 0x07
 51c:	48 86       	std	Y+8, r4	; 0x08
 51e:	57 01       	movw	r10, r14
 520:	21 e0       	ldi	r18, 0x01	; 1
 522:	a2 1a       	sub	r10, r18
 524:	b1 08       	sbc	r11, r1

			for (uint8_t n=20; n<=100; n+=20) if (i >= !(i % n) && i > n-1) _chase(i-n, color_A, color_B);
 526:	8d 2d       	mov	r24, r13
 528:	6f 81       	ldd	r22, Y+7	; 0x07
 52a:	6f 5f       	subi	r22, 0xFF	; 255
 52c:	0e 94 01 04 	call	0x802	; 0x802 <__udivmodqi4>
 530:	29 2f       	mov	r18, r25
 532:	87 2d       	mov	r24, r7
 534:	9c 2d       	mov	r25, r12
 536:	22 23       	and	r18, r18
 538:	11 f0       	breq	.+4      	; 0x53e <strip_chase+0xa2>
 53a:	85 2d       	mov	r24, r5
 53c:	96 2d       	mov	r25, r6
 53e:	08 17       	cp	r16, r24
 540:	19 07       	cpc	r17, r25
 542:	74 f0       	brlt	.+28     	; 0x560 <strip_chase+0xc4>
 544:	8f 81       	ldd	r24, Y+7	; 0x07
 546:	98 85       	ldd	r25, Y+8	; 0x08
 548:	80 17       	cp	r24, r16
 54a:	91 07       	cpc	r25, r17
 54c:	4c f4       	brge	.+18     	; 0x560 <strip_chase+0xc4>
 54e:	a4 01       	movw	r20, r8
 550:	b1 01       	movw	r22, r2
 552:	c5 01       	movw	r24, r10
 554:	ef 81       	ldd	r30, Y+7	; 0x07
 556:	f8 85       	ldd	r31, Y+8	; 0x08
 558:	8e 1b       	sub	r24, r30
 55a:	9f 0b       	sbc	r25, r31
 55c:	0e 94 2b 02 	call	0x456	; 0x456 <_chase>
 560:	2f 81       	ldd	r18, Y+7	; 0x07
 562:	38 85       	ldd	r19, Y+8	; 0x08
 564:	2c 5e       	subi	r18, 0xEC	; 236
 566:	3f 4f       	sbci	r19, 0xFF	; 255
 568:	38 87       	std	Y+8, r19	; 0x08
 56a:	2f 83       	std	Y+7, r18	; 0x07
 56c:	27 37       	cpi	r18, 0x77	; 119
 56e:	31 05       	cpc	r19, r1
 570:	d1 f6       	brne	.-76     	; 0x526 <strip_chase+0x8a>

			update_strip();
 572:	0e 94 9e 00 	call	0x13c	; 0x13c <update_strip>

			if (i == MAXPIX-2 && r == repeats-1) break;
 576:	34 e9       	ldi	r19, 0x94	; 148
 578:	d3 12       	cpse	r13, r19
 57a:	07 c0       	rjmp	.+14     	; 0x58a <strip_chase+0xee>
 57c:	49 81       	ldd	r20, Y+1	; 0x01
 57e:	5a 81       	ldd	r21, Y+2	; 0x02
 580:	8d 81       	ldd	r24, Y+5	; 0x05
 582:	9e 81       	ldd	r25, Y+6	; 0x06
 584:	48 17       	cp	r20, r24
 586:	59 07       	cpc	r21, r25
 588:	71 f0       	breq	.+28     	; 0x5a6 <strip_chase+0x10a>
 58a:	ef e3       	ldi	r30, 0x3F	; 63
 58c:	fc e9       	ldi	r31, 0x9C	; 156
 58e:	31 97       	sbiw	r30, 0x01	; 1
 590:	f1 f7       	brne	.-4      	; 0x58e <strip_chase+0xf2>
 592:	00 c0       	rjmp	.+0      	; 0x594 <strip_chase+0xf8>
 594:	00 00       	nop
 596:	ff ef       	ldi	r31, 0xFF	; 255
 598:	ef 1a       	sub	r14, r31
 59a:	ff 0a       	sbc	r15, r31


void strip_chase(int delay, uint8_t repeats, uint8_t color_A[3], uint8_t color_B[3]) {	
	for (uint8_t r=0; r<repeats; r++) {
	
		for (uint8_t i=0; i<MAXPIX+101; i++) {
 59c:	2b ef       	ldi	r18, 0xFB	; 251
 59e:	e2 16       	cp	r14, r18
 5a0:	f1 04       	cpc	r15, r1
 5a2:	09 f0       	breq	.+2      	; 0x5a6 <strip_chase+0x10a>
 5a4:	b2 cf       	rjmp	.-156    	; 0x50a <strip_chase+0x6e>
 5a6:	49 81       	ldd	r20, Y+1	; 0x01
 5a8:	5a 81       	ldd	r21, Y+2	; 0x02
 5aa:	4f 5f       	subi	r20, 0xFF	; 255
 5ac:	5f 4f       	sbci	r21, 0xFF	; 255
 5ae:	5a 83       	std	Y+2, r21	; 0x02
 5b0:	49 83       	std	Y+1, r20	; 0x01
	}
}


void strip_chase(int delay, uint8_t repeats, uint8_t color_A[3], uint8_t color_B[3]) {	
	for (uint8_t r=0; r<repeats; r++) {
 5b2:	8b 81       	ldd	r24, Y+3	; 0x03
 5b4:	9c 81       	ldd	r25, Y+4	; 0x04
 5b6:	48 17       	cp	r20, r24
 5b8:	59 07       	cpc	r21, r25
 5ba:	19 f0       	breq	.+6      	; 0x5c2 <strip_chase+0x126>
		prep_pixel_fixedcolor(position-1, color_A);
	}
}


void strip_chase(int delay, uint8_t repeats, uint8_t color_A[3], uint8_t color_B[3]) {	
 5bc:	e1 2c       	mov	r14, r1
 5be:	f1 2c       	mov	r15, r1
 5c0:	a4 cf       	rjmp	.-184    	; 0x50a <strip_chase+0x6e>

			if (i == MAXPIX-2 && r == repeats-1) break;
			_delay_ms(10);
		}
	}
} 
 5c2:	28 96       	adiw	r28, 0x08	; 8
 5c4:	0f b6       	in	r0, 0x3f	; 63
 5c6:	f8 94       	cli
 5c8:	de bf       	out	0x3e, r29	; 62
 5ca:	0f be       	out	0x3f, r0	; 63
 5cc:	cd bf       	out	0x3d, r28	; 61
 5ce:	df 91       	pop	r29
 5d0:	cf 91       	pop	r28
 5d2:	1f 91       	pop	r17
 5d4:	0f 91       	pop	r16
 5d6:	ff 90       	pop	r15
 5d8:	ef 90       	pop	r14
 5da:	df 90       	pop	r13
 5dc:	cf 90       	pop	r12
 5de:	bf 90       	pop	r11
 5e0:	af 90       	pop	r10
 5e2:	9f 90       	pop	r9
 5e4:	8f 90       	pop	r8
 5e6:	7f 90       	pop	r7
 5e8:	6f 90       	pop	r6
 5ea:	5f 90       	pop	r5
 5ec:	4f 90       	pop	r4
 5ee:	3f 90       	pop	r3
 5f0:	2f 90       	pop	r2
 5f2:	08 95       	ret

000005f4 <main>:




int main(void)
{
 5f4:	cf 93       	push	r28
 5f6:	df 93       	push	r29
 5f8:	cd b7       	in	r28, 0x3d	; 61
 5fa:	de b7       	in	r29, 0x3e	; 62
 5fc:	a1 97       	sbiw	r28, 0x21	; 33
 5fe:	0f b6       	in	r0, 0x3f	; 63
 600:	f8 94       	cli
 602:	de bf       	out	0x3e, r29	; 62
 604:	0f be       	out	0x3f, r0	; 63
 606:	cd bf       	out	0x3d, r28	; 61
	DDRB |= (1<<PINB5);
 608:	25 9a       	sbi	0x04, 5	; 4

	int wait;

	uint8_t color[COLOR_LEN][3] = {
 60a:	81 e2       	ldi	r24, 0x21	; 33
 60c:	e0 e0       	ldi	r30, 0x00	; 0
 60e:	f1 e0       	ldi	r31, 0x01	; 1
 610:	de 01       	movw	r26, r28
 612:	11 96       	adiw	r26, 0x01	; 1
 614:	01 90       	ld	r0, Z+
 616:	0d 92       	st	X+, r0
 618:	8a 95       	dec	r24
 61a:	e1 f7       	brne	.-8      	; 0x614 <main+0x20>
		{50, 100, 200},  // LIGHBLUE
		{255, 255, 255}  // WHITE
	};


	clear_strip();
 61c:	0e 94 ca 00 	call	0x194	; 0x194 <clear_strip>



	// --- test area ---

	strip_fadetocolor(10, color[TURKIS]);
 620:	be 01       	movw	r22, r28
 622:	6d 5e       	subi	r22, 0xED	; 237
 624:	7f 4f       	sbci	r23, 0xFF	; 255
 626:	8a e0       	ldi	r24, 0x0A	; 10
 628:	90 e0       	ldi	r25, 0x00	; 0
 62a:	0e 94 a5 01 	call	0x34a	; 0x34a <strip_fadetocolor>
 62e:	2f ef       	ldi	r18, 0xFF	; 255
 630:	33 e2       	ldi	r19, 0x23	; 35
 632:	84 ef       	ldi	r24, 0xF4	; 244
 634:	21 50       	subi	r18, 0x01	; 1
 636:	30 40       	sbci	r19, 0x00	; 0
 638:	80 40       	sbci	r24, 0x00	; 0
 63a:	e1 f7       	brne	.-8      	; 0x634 <main+0x40>
 63c:	00 c0       	rjmp	.+0      	; 0x63e <main+0x4a>
 63e:	00 00       	nop

	_delay_ms(5000);

	strip_fadetocolor(10, color[OFF]);
 640:	be 01       	movw	r22, r28
 642:	6f 5f       	subi	r22, 0xFF	; 255
 644:	7f 4f       	sbci	r23, 0xFF	; 255
 646:	8a e0       	ldi	r24, 0x0A	; 10
 648:	90 e0       	ldi	r25, 0x00	; 0
 64a:	0e 94 a5 01 	call	0x34a	; 0x34a <strip_fadetocolor>
 64e:	7e 01       	movw	r14, r28
 650:	92 e2       	ldi	r25, 0x22	; 34
 652:	e9 0e       	add	r14, r25
 654:	f1 1c       	adc	r15, r1

	while (1) {

		wait = 70;

		strip_colorswipe(wait, color[RED]);
 656:	be 01       	movw	r22, r28
 658:	6c 5f       	subi	r22, 0xFC	; 252
 65a:	7f 4f       	sbci	r23, 0xFF	; 255
 65c:	86 e4       	ldi	r24, 0x46	; 70
 65e:	90 e0       	ldi	r25, 0x00	; 0
 660:	0e 94 e5 00 	call	0x1ca	; 0x1ca <strip_colorswipe>
		strip_colorswipe(wait, color[GREEN]);
 664:	be 01       	movw	r22, r28
 666:	69 5f       	subi	r22, 0xF9	; 249
 668:	7f 4f       	sbci	r23, 0xFF	; 255
 66a:	86 e4       	ldi	r24, 0x46	; 70
 66c:	90 e0       	ldi	r25, 0x00	; 0
 66e:	0e 94 e5 00 	call	0x1ca	; 0x1ca <strip_colorswipe>
		strip_colorswipe(wait, color[BLUE]);
 672:	be 01       	movw	r22, r28
 674:	66 5f       	subi	r22, 0xF6	; 246
 676:	7f 4f       	sbci	r23, 0xFF	; 255
 678:	86 e4       	ldi	r24, 0x46	; 70
 67a:	90 e0       	ldi	r25, 0x00	; 0
 67c:	0e 94 e5 00 	call	0x1ca	; 0x1ca <strip_colorswipe>
		strip_colorswipe(wait, color[PINK]);
 680:	be 01       	movw	r22, r28
 682:	63 5f       	subi	r22, 0xF3	; 243
 684:	7f 4f       	sbci	r23, 0xFF	; 255
 686:	86 e4       	ldi	r24, 0x46	; 70
 688:	90 e0       	ldi	r25, 0x00	; 0
 68a:	0e 94 e5 00 	call	0x1ca	; 0x1ca <strip_colorswipe>
		strip_colorswipe(wait, color[YELLOW]);
 68e:	be 01       	movw	r22, r28
 690:	60 5f       	subi	r22, 0xF0	; 240
 692:	7f 4f       	sbci	r23, 0xFF	; 255
 694:	86 e4       	ldi	r24, 0x46	; 70
 696:	90 e0       	ldi	r25, 0x00	; 0
 698:	0e 94 e5 00 	call	0x1ca	; 0x1ca <strip_colorswipe>
		strip_colorswipe(wait, color[TURKIS]);
 69c:	be 01       	movw	r22, r28
 69e:	6d 5e       	subi	r22, 0xED	; 237
 6a0:	7f 4f       	sbci	r23, 0xFF	; 255
 6a2:	86 e4       	ldi	r24, 0x46	; 70
 6a4:	90 e0       	ldi	r25, 0x00	; 0
 6a6:	0e 94 e5 00 	call	0x1ca	; 0x1ca <strip_colorswipe>
 6aa:	2f ef       	ldi	r18, 0xFF	; 255
 6ac:	33 e2       	ldi	r19, 0x23	; 35
 6ae:	84 ef       	ldi	r24, 0xF4	; 244
 6b0:	21 50       	subi	r18, 0x01	; 1
 6b2:	30 40       	sbci	r19, 0x00	; 0
 6b4:	80 40       	sbci	r24, 0x00	; 0
 6b6:	e1 f7       	brne	.-8      	; 0x6b0 <main+0xbc>
 6b8:	00 c0       	rjmp	.+0      	; 0x6ba <main+0xc6>
 6ba:	00 00       	nop
		
		_delay_ms(5000);

		strip_nazi(color[YELLOW], color[PINK], color[BLUE]);
 6bc:	ae 01       	movw	r20, r28
 6be:	46 5f       	subi	r20, 0xF6	; 246
 6c0:	5f 4f       	sbci	r21, 0xFF	; 255
 6c2:	be 01       	movw	r22, r28
 6c4:	63 5f       	subi	r22, 0xF3	; 243
 6c6:	7f 4f       	sbci	r23, 0xFF	; 255
 6c8:	ce 01       	movw	r24, r28
 6ca:	40 96       	adiw	r24, 0x10	; 16
 6cc:	0e 94 13 01 	call	0x226	; 0x226 <strip_nazi>
 6d0:	9f ef       	ldi	r25, 0xFF	; 255
 6d2:	2d e3       	ldi	r18, 0x3D	; 61
 6d4:	39 e4       	ldi	r19, 0x49	; 73
 6d6:	91 50       	subi	r25, 0x01	; 1
 6d8:	20 40       	sbci	r18, 0x00	; 0
 6da:	30 40       	sbci	r19, 0x00	; 0
 6dc:	e1 f7       	brne	.-8      	; 0x6d6 <main+0xe2>
 6de:	00 c0       	rjmp	.+0      	; 0x6e0 <main+0xec>
 6e0:	00 00       	nop
		_delay_ms(1500);
		strip_nazi(color[WHITE], color[RED], color[GREEN]);
 6e2:	ae 01       	movw	r20, r28
 6e4:	49 5f       	subi	r20, 0xF9	; 249
 6e6:	5f 4f       	sbci	r21, 0xFF	; 255
 6e8:	be 01       	movw	r22, r28
 6ea:	6c 5f       	subi	r22, 0xFC	; 252
 6ec:	7f 4f       	sbci	r23, 0xFF	; 255
 6ee:	ce 01       	movw	r24, r28
 6f0:	4f 96       	adiw	r24, 0x1f	; 31
 6f2:	0e 94 13 01 	call	0x226	; 0x226 <strip_nazi>
 6f6:	8f ef       	ldi	r24, 0xFF	; 255
 6f8:	9d e3       	ldi	r25, 0x3D	; 61
 6fa:	29 e4       	ldi	r18, 0x49	; 73
 6fc:	81 50       	subi	r24, 0x01	; 1
 6fe:	90 40       	sbci	r25, 0x00	; 0
 700:	20 40       	sbci	r18, 0x00	; 0
 702:	e1 f7       	brne	.-8      	; 0x6fc <main+0x108>
 704:	00 c0       	rjmp	.+0      	; 0x706 <main+0x112>
 706:	00 00       	nop
		_delay_ms(1500);
		strip_nazi(color[LIGHTBLUE], color[PINK], color[RED]);
 708:	ae 01       	movw	r20, r28
 70a:	4c 5f       	subi	r20, 0xFC	; 252
 70c:	5f 4f       	sbci	r21, 0xFF	; 255
 70e:	be 01       	movw	r22, r28
 710:	63 5f       	subi	r22, 0xF3	; 243
 712:	7f 4f       	sbci	r23, 0xFF	; 255
 714:	ce 01       	movw	r24, r28
 716:	4c 96       	adiw	r24, 0x1c	; 28
 718:	0e 94 13 01 	call	0x226	; 0x226 <strip_nazi>
 71c:	3f ef       	ldi	r19, 0xFF	; 255
 71e:	8d e3       	ldi	r24, 0x3D	; 61
 720:	99 e4       	ldi	r25, 0x49	; 73
 722:	31 50       	subi	r19, 0x01	; 1
 724:	80 40       	sbci	r24, 0x00	; 0
 726:	90 40       	sbci	r25, 0x00	; 0
 728:	e1 f7       	brne	.-8      	; 0x722 <main+0x12e>
 72a:	00 c0       	rjmp	.+0      	; 0x72c <main+0x138>
 72c:	00 00       	nop
 72e:	8e 01       	movw	r16, r28
 730:	09 5f       	subi	r16, 0xF9	; 249
 732:	1f 4f       	sbci	r17, 0xFF	; 255
		_delay_ms(1500);

		for (uint8_t i=2; i<COLOR_LEN; i++) strip_fadetocolor(5, color[i]);
 734:	b8 01       	movw	r22, r16
 736:	85 e0       	ldi	r24, 0x05	; 5
 738:	90 e0       	ldi	r25, 0x00	; 0
 73a:	0e 94 a5 01 	call	0x34a	; 0x34a <strip_fadetocolor>
 73e:	0d 5f       	subi	r16, 0xFD	; 253
 740:	1f 4f       	sbci	r17, 0xFF	; 255
 742:	0e 15       	cp	r16, r14
 744:	1f 05       	cpc	r17, r15
 746:	b1 f7       	brne	.-20     	; 0x734 <main+0x140>
 748:	2f ef       	ldi	r18, 0xFF	; 255
 74a:	33 e2       	ldi	r19, 0x23	; 35
 74c:	84 ef       	ldi	r24, 0xF4	; 244
 74e:	21 50       	subi	r18, 0x01	; 1
 750:	30 40       	sbci	r19, 0x00	; 0
 752:	80 40       	sbci	r24, 0x00	; 0
 754:	e1 f7       	brne	.-8      	; 0x74e <main+0x15a>
 756:	00 c0       	rjmp	.+0      	; 0x758 <main+0x164>
 758:	00 00       	nop
		
		_delay_ms(5000);

		strip_chase(wait, 5, color[WHITE], color[RED]);
 75a:	9e 01       	movw	r18, r28
 75c:	2c 5f       	subi	r18, 0xFC	; 252
 75e:	3f 4f       	sbci	r19, 0xFF	; 255
 760:	ae 01       	movw	r20, r28
 762:	41 5e       	subi	r20, 0xE1	; 225
 764:	5f 4f       	sbci	r21, 0xFF	; 255
 766:	65 e0       	ldi	r22, 0x05	; 5
 768:	86 e4       	ldi	r24, 0x46	; 70
 76a:	90 e0       	ldi	r25, 0x00	; 0
 76c:	0e 94 4e 02 	call	0x49c	; 0x49c <strip_chase>
		strip_fadetocolor(wait, color[TURKIS]);
 770:	be 01       	movw	r22, r28
 772:	6d 5e       	subi	r22, 0xED	; 237
 774:	7f 4f       	sbci	r23, 0xFF	; 255
 776:	86 e4       	ldi	r24, 0x46	; 70
 778:	90 e0       	ldi	r25, 0x00	; 0
 77a:	0e 94 a5 01 	call	0x34a	; 0x34a <strip_fadetocolor>
		strip_chase(wait, 5, color[TURKIS], color[PINK]);
 77e:	9e 01       	movw	r18, r28
 780:	23 5f       	subi	r18, 0xF3	; 243
 782:	3f 4f       	sbci	r19, 0xFF	; 255
 784:	ae 01       	movw	r20, r28
 786:	4d 5e       	subi	r20, 0xED	; 237
 788:	5f 4f       	sbci	r21, 0xFF	; 255
 78a:	65 e0       	ldi	r22, 0x05	; 5
 78c:	86 e4       	ldi	r24, 0x46	; 70
 78e:	90 e0       	ldi	r25, 0x00	; 0
 790:	0e 94 4e 02 	call	0x49c	; 0x49c <strip_chase>
		strip_fadetocolor(5, color[YELLOW]);
 794:	be 01       	movw	r22, r28
 796:	60 5f       	subi	r22, 0xF0	; 240
 798:	7f 4f       	sbci	r23, 0xFF	; 255
 79a:	85 e0       	ldi	r24, 0x05	; 5
 79c:	90 e0       	ldi	r25, 0x00	; 0
 79e:	0e 94 a5 01 	call	0x34a	; 0x34a <strip_fadetocolor>
		strip_chase(wait, 5, color[YELLOW], color[BLUE]);
 7a2:	9e 01       	movw	r18, r28
 7a4:	26 5f       	subi	r18, 0xF6	; 246
 7a6:	3f 4f       	sbci	r19, 0xFF	; 255
 7a8:	ae 01       	movw	r20, r28
 7aa:	40 5f       	subi	r20, 0xF0	; 240
 7ac:	5f 4f       	sbci	r21, 0xFF	; 255
 7ae:	65 e0       	ldi	r22, 0x05	; 5
 7b0:	86 e4       	ldi	r24, 0x46	; 70
 7b2:	90 e0       	ldi	r25, 0x00	; 0
 7b4:	0e 94 4e 02 	call	0x49c	; 0x49c <strip_chase>
		strip_fadetocolor(5, color[RED]);
 7b8:	be 01       	movw	r22, r28
 7ba:	6c 5f       	subi	r22, 0xFC	; 252
 7bc:	7f 4f       	sbci	r23, 0xFF	; 255
 7be:	85 e0       	ldi	r24, 0x05	; 5
 7c0:	90 e0       	ldi	r25, 0x00	; 0
 7c2:	0e 94 a5 01 	call	0x34a	; 0x34a <strip_fadetocolor>
		strip_chase(wait, 5, color[RED], color[WHITE]);
 7c6:	9e 01       	movw	r18, r28
 7c8:	21 5e       	subi	r18, 0xE1	; 225
 7ca:	3f 4f       	sbci	r19, 0xFF	; 255
 7cc:	ae 01       	movw	r20, r28
 7ce:	4c 5f       	subi	r20, 0xFC	; 252
 7d0:	5f 4f       	sbci	r21, 0xFF	; 255
 7d2:	65 e0       	ldi	r22, 0x05	; 5
 7d4:	86 e4       	ldi	r24, 0x46	; 70
 7d6:	90 e0       	ldi	r25, 0x00	; 0
 7d8:	0e 94 4e 02 	call	0x49c	; 0x49c <strip_chase>
		strip_fadetocolor(5, color[WHITE]);
 7dc:	be 01       	movw	r22, r28
 7de:	61 5e       	subi	r22, 0xE1	; 225
 7e0:	7f 4f       	sbci	r23, 0xFF	; 255
 7e2:	85 e0       	ldi	r24, 0x05	; 5
 7e4:	90 e0       	ldi	r25, 0x00	; 0
 7e6:	0e 94 a5 01 	call	0x34a	; 0x34a <strip_fadetocolor>
 7ea:	9f ef       	ldi	r25, 0xFF	; 255
 7ec:	29 e5       	ldi	r18, 0x59	; 89
 7ee:	32 e6       	ldi	r19, 0x62	; 98
 7f0:	82 e0       	ldi	r24, 0x02	; 2
 7f2:	91 50       	subi	r25, 0x01	; 1
 7f4:	20 40       	sbci	r18, 0x00	; 0
 7f6:	30 40       	sbci	r19, 0x00	; 0
 7f8:	80 40       	sbci	r24, 0x00	; 0
 7fa:	d9 f7       	brne	.-10     	; 0x7f2 <main+0x1fe>
 7fc:	00 c0       	rjmp	.+0      	; 0x7fe <main+0x20a>
 7fe:	00 00       	nop
 800:	2a cf       	rjmp	.-428    	; 0x656 <main+0x62>

00000802 <__udivmodqi4>:
 802:	99 1b       	sub	r25, r25
 804:	79 e0       	ldi	r23, 0x09	; 9
 806:	04 c0       	rjmp	.+8      	; 0x810 <__udivmodqi4_ep>

00000808 <__udivmodqi4_loop>:
 808:	99 1f       	adc	r25, r25
 80a:	96 17       	cp	r25, r22
 80c:	08 f0       	brcs	.+2      	; 0x810 <__udivmodqi4_ep>
 80e:	96 1b       	sub	r25, r22

00000810 <__udivmodqi4_ep>:
 810:	88 1f       	adc	r24, r24
 812:	7a 95       	dec	r23
 814:	c9 f7       	brne	.-14     	; 0x808 <__udivmodqi4_loop>
 816:	80 95       	com	r24
 818:	08 95       	ret

0000081a <_exit>:
 81a:	f8 94       	cli

0000081c <__stop_program>:
 81c:	ff cf       	rjmp	.-2      	; 0x81c <__stop_program>
