:100000000C9434000C9451000C9451000C94510049
:100010000C9451000C9451000C9451000C9451001C
:100020000C9451000C9451000C9451000C9451000C
:100030000C9451000C9451000C9451000C945100FC
:100040000C9451000C9451000C9451000C945100EC
:100050000C9451000C9451000C9451000C945100DC
:100060000C9451000C94510011241FBECFEFD8E026
:10007000DEBFCDBF11E0A0E0B1E0EEE1F8E002C0EC
:1000800005900D92A232B107D9F722E0A2E2B1E0C9
:1000900001C01D92A43EB207E1F70E94FA020C943F
:1000A0000D040C9400009B01220F331F620F731F7D
:1000B000569A2BB12F7B3BB130644FB7F894611542
:1000C0007105B1F0FC01680F791F919188E03BB98F
:1000D000000000C097FF2BB9990F000000C000C0BE
:1000E00000C02BB900C08A9591F7E617F70769F7AA
:1000F0004FBF8FEA94E00197F1F700C00000089528
:100100002D9A08952D980895CF93DF93EC010E94C6
:1001100080001C161D066CF420E030E08FE99FE0A3
:100120000197F1F700C000002F5F3F4F2C173D07EC
:10013000A9F70E948200DF91CF91089562EC71E0EF
:1001400082E291E00E9453000895DB0190E02C913F
:10015000FC01EE0FFF1F8E0F9F1FFC01EE5DFE4F97
:10016000218311968C911197808312968C918283B2
:100170000895E4E2F1E026EE32E0DF0111978C937E
:1001800011976C9340833396E217F307B1F70E94FF
:100190009E00089540E060E080E00E94B9000E9467
:1001A0009E000895FB012281318140819927FC0145
:1001B000EE0FFF1F8E0F9F1FFC01EE5DFE4F418370
:1001C000308322830E949E000895CF92DF92EF92A7
:1001D000FF920F931F93CF93DF936C018B01C4E2C7
:1001E000D1E00F2EF6EEEF2EF2E0FF2EF02DF8010B
:1001F000928181812081FE01319720833197808314
:1002000098830E949E00C6010E9484002396CE150A
:10021000DF0569F7DF91CF911F910F91FF90EF906C
:10022000DF90CF900895AF92BF92CF92DF92EF927E
:10023000FF920F931F93CF93DF938C016B017A0191
:10024000CCE8D0E0B801CE010E94D200B801CE01C6
:100250008B5491090E94D2008FE39CE90197F1F73A
:1002600000C000002197C636D10561F79FEF2DE34E
:1002700089E4915020408040E1F700C00000CBE1CC
:10028000D0E000E010E00F2EF5E9AF2EB12CF02DFC
:10029000B601CE01855B9F4F0E94D200DD232CF07A
:1002A000B601CE010E94D20008C0B601C501801B74
:1002B000910B0E94D2000F5F1F4F8FE39CE90197C3
:1002C000F1F700C000002197C63F9FEFD90701F763
:1002D0002FEF8DE399E4215080409040E1F700C07A
:1002E0000000C1E4D0E000E010E00F2EF5E9CF2ED1
:1002F000D12CF02DB701CE01855B9F4F0E94D2001B
:10030000DD232CF0B701CE010E94D20008C0B70156
:10031000C601801B910B0E94D2000F5F1F4F8FE31D
:100320009CE90197F1F700C000002197C63F9FEFBD
:10033000D90701F7DF91CF911F910F91FF90EF90B7
:10034000DF90CF90BF90AF9008952F923F924F9241
:100350005F926F927F928F929F92AF92BF92CF9255
:10036000DF92EF92FF920F931F93CF93DF935C0185
:100370001B010F2EF3E2CF2EF1E0DF2EF02D0F2E1A
:10038000F2E2EF2EF1E0FF2EF02D0F2EF4E26F2EB1
:10039000F1E07F2EF02D0F2EF6EE8F2EF2E09F2E45
:1003A000F02D412C512CC601D701F301042D152D40
:1003B000EC014881E1015881451720F44F5FEC01C1
:1003C000488308C0541720F44150EC01488302C010
:1003D0000F5F1F4F4C91E1015981451718F44F5F92
:1003E0004C9308C0541720F44150ED01488302C0DB
:1003F0000F5F1F4F4081E1015A81451718F44F5F8D
:10040000408307C0541718F44150408302C00F5F67
:100410001F4F039613963396E815F90549F60E9487
:100420009E00023C114021F0C5010E948400BBCF18
:10043000DF91CF911F910F91FF90EF90DF90CF90C0
:10044000BF90AF909F908F907F906F905F904F90F4
:100450003F902F900895EF92FF920F931F93CF93A9
:10046000DF93EC017B018A01BA010E94A5001C16F2
:100470001D066CF4C439D1052CF4B8018C2F8F5FA4
:100480000E94A500B7018C2F81500E94A500DF912A
:10049000CF911F910F91FF90EF9008952F923F926F
:1004A0004F925F926F927F928F929F92AF92BF9284
:1004B000CF92DF92EF92FF920F931F93CF93DF9330
:1004C000CDB7DEB728970FB6F894DEBF0FBECDBF0D
:1004D000662309F476C059011A012FEF260F30E088
:1004E000A9014F5F5F4F5C834B831A821982862F6D
:1004F00090E0FC013197FE83ED83412C77247394C7
:10050000C12C512C612C450159C0DE2C8701A4015E
:10051000B101C7010E942B02F3E1FF834886570116
:1005200021E0A21AB1088D2D6F816F5F0E94010436
:10053000292F872D9C2D222311F0852D962D08170C
:10054000190774F08F819885801791074CF4A401E6
:10055000B101C501EF81F8858E1B9F0B0E942B0214
:100560002F8138852C5E3F4F38872F832737310501
:10057000D1F60E949E0034E9D31207C049815A8106
:100580008D819E814817590771F0EFE3FCE931979F
:10059000F1F700C00000FFEFEF1AFF0A2BEFE216A1
:1005A000F10409F0B2CF49815A814F5F5F4F5A83FE
:1005B00049838B819C814817590719F0E12CF12C54
:1005C000A4CF28960FB6F894DEBF0FBECDBFDF9143
:1005D000CF911F910F91FF90EF90DF90CF90BF9040
:1005E000AF909F908F907F906F905F904F903F90D3
:1005F0002F900895CF93DF93CDB7DEB7A1970FB6B5
:10060000F894DEBF0FBECDBF259A81E2E0E0F1E0B5
:10061000DE01119601900D928A95E1F70E94CA00C1
:10062000BE016D5E7F4F8AE090E00E94A5012FEF32
:1006300033E284EF215030408040E1F700C00000F9
:10064000BE016F5F7F4F8AE090E00E94A5017E01AE
:1006500092E2E90EF11CBE016C5F7F4F86E490E0F0
:100660000E94E500BE01695F7F4F86E490E00E9432
:10067000E500BE01665F7F4F86E490E00E94E500E2
:10068000BE01635F7F4F86E490E00E94E500BE01FB
:10069000605F7F4F86E490E00E94E500BE016D5EE2
:1006A0007F4F86E490E00E94E5002FEF33E284EF75
:1006B000215030408040E1F700C00000AE01465FAD
:1006C0005F4FBE01635F7F4FCE0140960E941301D2
:1006D0009FEF2DE339E4915020403040E1F700C016
:1006E0000000AE01495F5F4FBE016C5F7F4FCE01DE
:1006F0004F960E9413018FEF9DE329E481509040B3
:100700002040E1F700C00000AE014C5F5F4FBE012A
:10071000635F7F4FCE014C960E9413013FEF8DE344
:1007200099E4315080409040E1F700C000008E0114
:10073000095F1F4FB80185E090E00E94A5010D5FA1
:100740001F4F0E151F05B1F72FEF33E284EF215035
:1007500030408040E1F700C000009E012C5F3F4F19
:10076000AE01415E5F4F65E086E490E00E944E027C
:10077000BE016D5E7F4F86E490E00E94A5019E0160
:10078000235F3F4FAE014D5E5F4F65E086E490E032
:100790000E944E02BE01605F7F4F85E090E00E94A4
:1007A000A5019E01265F3F4FAE01405F5F4F65E0B0
:1007B00086E490E00E944E02BE016C5F7F4F85E0B0
:1007C00090E00E94A5019E01215E3F4FAE014C5F6B
:1007D0005F4F65E086E490E00E944E02BE01615EDC
:1007E0007F4F85E090E00E94A5019FEF29E532E66A
:1007F00082E09150204030408040D9F700C0000096
:100800002ACF991B79E004C0991F961708F0961B10
:0E081000881F7A95C9F780950895F894FFCF58
:10081E00000000FF000000FF000000FFFF00646406
:10082E00FF000064FFC8326464C8323264C8FFFF40
:02083E00FF00B9
:00000001FF
